:100000000C94A3000C94DF000C94C0000C94C0006E
:100010000C942D040C94C0000C94C0000C94C000EF
:100020000C94C0000C94C0000C94C0000C94C00050
:100030000C94C0000C94C0000C94C0000C94C00040
:100040000C94C0000C94C0000C94C0000C94C00030
:100050000C94C0000600FF0901A101150026FF0055
:100060007508850295050900B20201850395050909
:1000700000B20201850495050900B20201850595CB
:10008000050900B20201850695050900B202018545
:100090002995060900B20201852A95830900B2025A
:1000A00001C009022200010100400A090400000108
:1000B00003000000092101010001224E0007058113
:1000C000030800C81201100100000008C016DF0577
:1000D00060010102000118034F00700065006E000E
:1000E0002D005500530042002D0049004F005403DD
:1000F0007700770077002E0070006A0072006100C0
:10010000640063006C0069006600660065002E00F4
:1001100077006F0072006400700072006500730069
:1001200073002E0063006F006D002F006F007000E1
:1001300065006E002D007500730062002D006900DF
:100140006F000403090411241FBECFE5D8E0DEBF11
:10015000CDBF10E0A0E6B0E0E8E4FCE002C005900E
:100160000D92A436B107D9F720E0A4E6B0E001C0B3
:100170001D92A13BB207E1F70E9475040C94220680
:100180000C940000A82FB92F8FEF9FEF41E050EAA9
:10019000615070F02D9138E0722F782796958795F1
:1001A000269570FF02C0842795273A95A9F7F0CFCE
:1001B000809590950895E6DF8D939D930895CF9354
:1001C000CFB7CF93C395879BE9F7879B09C0879BE0
:1001D00007C0879B05C0879B03C0879B01C09EC04B
:1001E000DF93C0919300DD27C556DF4F879B02C088
:1001F000DF91EBCF2F930F931F9300B32FEF07FBEC
:1002000020F94F933F9310B34FEF012707FB21F9DC
:100210003BE031C04E7F012F10B3216028C0102F6A
:100220004D7F2260000000B329C04B7F2460012F66
:10023000000010B32BC010B3477F28602AC04F7E48
:1002400000B320612CC04F7D10B320622FC04F7BC4
:1002500000B3206432C0422700B349934FEF00003F
:10026000102717FB20F910B31478A9F1297F91F218
:10027000012707FB21F900B3237F89F23150F0F108
:10028000102717FB22F910B3277E79F2012707FB0D
:1002900023F92F7C81F200B3102717FB24F92F7963
:1002A00071F200C010B3012707FB25F92F7359F233
:1002B00000C000B3102717FB26F9223040F200C01F
:1002C00010B3012707FB27F9243028F64F77206861
:1002D00010B30000F9CF3B503195333010E41ABF12
:1002E000B8F0C31BD0400881033C41F10B3431F11D
:1002F0001981412F1F7720919100121731F409368F
:1003000091F10D3279F0013E69F022272093980097
:100310003F914F911F910F912F91DF91CF91CFBFBF
:10032000CF911895009398003F914F911F910F9195
:100330002F91DF91CAB7C6FD45CFF0CF009198004D
:10034000002331F3109196001123A1F53430A2F16E
:100350003093960000939200109193003BE0311B84
:100360003093930029C00091960001301CF50AE5F6
:1003700047FD09C03091620034FD20C00093620047
:10038000CBE7D0E01FC03091610034FD17C000936F
:100390006100C6E8D0E016C0052710E002BB1FC010
:1003A000052722C0052727C005272CC0052710E0F8
:1003B00002BB33C04AE503C042ED01C0432FC4E194
:1003C000D0E032E011B31468979A02B311BB5F9387
:1003D00054E820E820FF052702BB279517951C3F0E
:1003E000D8F620FF0527279502BB17951C3FC0F6BE
:1003F00020FF05272795179502BB1C3F98F620FF85
:100400000527279517951C3F02BB70F600C0499140
:1004100020FF052702BB279517951C3F38F620FFC4
:100420000527279502BB17951C3F38F520FF0527A8
:100430002795179502BB1C3F10F520FF0527279530
:1004400017951C3F02BBE8F4242F3A9519F60B7759
:100450005F9102BB00C010919700C651D04011F0CF
:100460001093910010E41ABF006811B31B77402F5E
:100470004B7702BB11BB42BB4BCF0527D3CF052720
:10048000D8CF0527DDCF08950895FFCFFC01218146
:10049000293039F4828180936000109279008FEFC7
:1004A0000895213009F0B9C0FC018281EFE6F0E047
:1004B0008083F0939500E0939400823009F058C057
:1004C00080917A00DF018183E0916800F0916900FA
:1004D0001296FC9312971396EC9381FF22C081E051
:1004E00080937A00E199FECF809168009091690035
:1004F0009C012F5F3F4F30936900209368009FBBA2
:100500008EBBE09AE0917A0081E08E0F80937A00B2
:100510009DB3F0E0E159FF4F9083863018F386E0F9
:100520000895E634F10571F0CF018D7F883491058F
:1005300049F0EC34F10531F0EE33F10519F0E43215
:10054000F10561F480819181909378008093770028
:10055000EFE6F0E09483858386E00895AFE6B0E0AF
:1005600014961C921497808115968C9386E00895BA
:10057000833071F489B3EFE6F0E0818386B3828340
:1005800083B3838380B3848385E0858386E0089585
:100590008430D9F447E750E068E670E08AE790E0FD
:1005A0000E944402EFE6F0E080917A00818380911E
:1005B0006800909169009283838380917700909185
:1005C00078009483858386E008958530C9F4A091EE
:1005D0006800B09169008C91EFE6F0E0818311969C
:1005E0008C911197828312968C9112978383139624
:1005F0008C911397848314968C91858386E008955B
:10060000893269F4EFE6F0E080E881831282138298
:1006100084831582168287E0089580E0089580E043
:1006200008950F931F93CF93DF93DC01862F909152
:100630006000923009F06EC011968C9111978093F2
:100640007A001296EC911297F0E0FE2FEE271396A7
:100650008C911397E82BAF01F0936900E093680049
:1006600015963C91159714962C911497832F90E032
:10067000922B909378008093770011962C9111978C
:1006800020FFDFC021FF21C0E199FECFFFBBEEBB01
:1006900015968C9115978DBBF894E29AE19A78940F
:1006A00080917A0082FFCFC0E199FECF80916800EF
:1006B000909169009FBB8EBB14968C918DBBF89472
:1006C000E29AE19A789481E0C3C0BF016153710955
:1006D0006230710538F4808184783B77832B808386
:1006E00081E0B6C04634510571F0BF016D7F6834BA
:1006F000710549F04C34510531F04E33510519F074
:100700004432510521F49183808381E0A1C030837C
:1007100081E09EC0993221F481E08093670098C007
:100720009A3209F065C09091790091110DC011962F
:100730004C91119712965C91129713966C911397A6
:1007400070E08450149608C040916B0050916C008A
:1007500060916D0070916E0090917900980F909368
:1007600079008695D3E091E0C5E09A012F77332791
:10077000232B49F4F894FA01D0935700E895789424
:1007800007B600FCFDCFF8942D913D91FA010901C7
:1007900090935700E895112478948A019B010E5F8D
:1007A0001F4F2F4F3F4FB901A801F801EF77FF27E7
:1007B000EF2B51F4F894F8013297C0935700E89565
:1007C000789407B600FCFDCF815009F0CECF40935E
:1007D0006B0050936C0060936D0070936E0080917D
:1007E0007900882394F58FEF8093600081E030C01A
:1007F00011968C91119780937A001296EC91129732
:10080000F0E0FE2FEE2713962C911397E22BF09336
:100810006900E093680015964C91159714965C91C9
:10082000242F30E0352B30937800209377009630DA
:1008300071F4813011F440830BC03183208381E057
:1008400007C081E005C081E003C080E001C081E015
:10085000DF91CF911F910F91089578941F920F927D
:100860000FB60F9211242F933F934F935F936F9383
:100870007F938F939F93AF93BF93EF93FF9383B532
:100880008B3B19F48CEB83BD02C08BEB83BD809155
:1008900066008F5F80936600809164008F5F883C64
:1008A00018F48093640007C01092640080916A007D
:1008B0008F5F80936A000E944302A89580919900FF
:1008C000811102C00E94AC04FF91EF91BF91AF91E2
:1008D0009F918F917F916F915F914F913F912F9158
:1008E0000F900FBE0F901F9018959EE088E10FB6F5
:1008F000F894A89581BD0FBE91BD8EEB81BB12BA55
:100900008FEFA895EFE6F7E13197F1F700C000000F
:100910008150B9F781B38B7781BB0E941806789418
:100920008BE085BD9BEB93BD12BC89B7806889BF06
:1009300087EC86B980E487B91BBA1ABA18BA8FEF68
:1009400087BB85BB14BA99B98AB188618AB90E94FC
:10095000450280E090E00895CF93DF9381E080939B
:1009600099006091960016160CF0E9C06350209132
:1009700093008CE090E0821B9109EC01C556DF4F9B
:10098000809192008D3209F0B9C08AE580936200AF
:10099000683009F0C9C08881982F907609F09AC014
:1009A000109284009981911110C08F7119F481E027
:1009B000809384001092850084E890E090939500E5
:1009C0008093940090E882E091C0953031F48A8160
:1009D0008093970090E880E089C0963009F053C07A
:1009E0008B81813049F484EC90E090939500809362
:1009F000940090EC82E17AC0823049F482EA90E07F
:100A0000909395008093940090EC82E26FC08330C5
:100A100019F58A81811109C082E491E090939500D3
:100A20008093940090EC84E061C0813049F48EEEB4
:100A300090E0909395008093940090EC84E556C0EC
:100A4000823009F0DFC086ED90E0909395008093AE
:100A5000940090EC88E14AC0813249F484EB90E044
:100A6000909395008093940090EC89E03FC082328F
:100A700009F0CBC084E590E09093950080939400BA
:100A800090EC8EE433C0983049F48AE990E090937A
:100A900095008093940090E881E028C0993031F46B
:100AA0008A8180939A0090E880E020C09A3049F4CF
:100AB00084E890E0909395008093940090E881E022
:100AC00015C09B3009F0A4C083EC8093860090E8A9
:100AD00080E00CC0CE010E9446028F3F31F4988125
:100AE00099230CF48E8190E024C090E82F8121118D
:100AF00020C02E812817E8F4822F1BC0809165004A
:100B00008823ACF0CE010E9411038F3F31F48EE1B7
:100B10008093620090E08FEF0CC091E0811190E033
:100B2000892F819590E005C090E880E002C090E8B0
:100B300080E090936500809363001092960080910E
:100B4000620084FF68C0809163008F3F09F463C036
:100B5000C82F893008F0C8E08C1B80936300809117
:100B6000650080FF02C0D3EC01C0DBE48F5F80939F
:100B70006500209194003091950086FD05C04FEFEF
:100B80004C0FC11114C024C04FEF4C0FCC2301F106
:100B9000ACE7B0E0842FF90194919D933196815098
:100BA000D8F7842F90E00196280F391F0DC0D90186
:100BB000ECE7F0E0842F9D9191938150E0F7842F32
:100BC00090E00196280F391F3093950020939400F0
:100BD0006C2F8CE790E00E94DB0084E08C0FC83023
:100BE00018F49FEF90936300D0937B008093620092
:100BF00012C080B3847819F49150D9F711C01092C3
:100C0000990013C090EC80E071CF90EC80E06ECF43
:100C100090E880E06BCF80B3847889F799E0E9CFE2
:100C20001092970010929100EACFDF91CF91089532
:100C300085B7836085BF8BB780648BBF83EC80935F
:080C400086000895F894FFCF2F
:040C4800FF5A5AFFF6
:00000001FF
